:020000022000DC
:106000000000012019620200016202000362020026
:10601000056202000762020009620200000000003F
:106020000000000000000000000000000B62020001
:106030000D620200000000000F6202001162020007
:10604000C9B7020013620200EDC40200DDD20200F3
:1060500013620200136202000DC20200136202000A
:106060001362020013620200136202001362020054
:106070001362020013620200136202001362020044
:106080001362020099080300136202001362020007
:1060900013620200136202007D34030013620200E7
:1060A0001362020013620200136202001362020014
:1060B00013620200136202000000000000000000F2
:1060C00013620200136202001362020013620200F4
:1060D000136202001362020013620200000000005B
:1060E00000000000000000000000000000000000B0
:1060F00000000000000000000000000000000000A0
:10610000000000000000000000000000000000008F
:10611000000000000000000000000000000000007F
:10612000000000000000000000000000000000006F
:10613000000000000000000000000000000000005F
:10614000000000000000000000000000000000004F
:10615000000000000000000000000000000000003F
:10616000000000000000000000000000000000002F
:10617000000000000000000000000000000000001F
:10618000000000000000000000000000000000000F
:1061900000000000000000000000000000000000FF
:1061A00000000000000000000000000000000000EF
:1061B00000000000000000000000000000000000DF
:1061C00000000000000000000000000000000000CF
:1061D00000000000000000000000000000000000BF
:1061E00000000000000000000000000000000000AF
:1061F000000000000000000000000000000000009F
:10620000FEE7FEE7FEE7FEE7FEE7FEE7FEE7FEE766
:10621000FEE7FEE700F002B8FFF7FCBF0F484FF0C3
:106220000701884385460E4880470E48016841F4BF
:1062300070010160BFF34F8FBFF36F8F00F01AB88A
:1062400009480A490A4A884207D0521A05D00378F9
:1062500001300B700131013AF9D170470000012083
:106260007179020088ED00E088520300D82A0020EE
:10627000D82A00203A493B480A1A02D00722914303
:106280008D46394939480A1A06D00722914381F3CD
:106290000988022282F3148835483649364A00F0CC
:1062A00041F836483649374A00F03CF83648374915
:1062B000374A00F037F837483749384A00F032F8A3
:1062C00037483849384A00F02DF838483849394AB3
:1062D00000F028F838483949394A00F023F839489D
:1062E0003949002200F036F838483949002200F0D8
:1062F00031F838483849091A0EF073FE374A90478A
:1063000025482649884205D00268043003B49047E6
:1063100003BCF7E700208646EC4600200021304A07
:106320009047FEE7884214D0521A12D003460B431E
:1063300013430324234206D1036804300B60043165
:10634000043AF9D17047037801300B700131013AFA
:10635000F9D17047884202D002700130FAE77047E5
:106360000000012000E000200000012000000120CA
:1063700090710300D82A0020782B0020E4630200EB
:10638000E46302007C51030090710300D82A0020CE
:10639000D82A002088520300885203008852030044
:1063A0008852030088520300885203008852030079
:1063B000885203009071030030720300782B002094
:1063C000782B0020782B0020643E0020643E0020C3
:1063D000643E0020643E0020645E002041620200B2
:0463E00069650200E9
:1063E40000B585B00190019B002B0AD0074B43F008
:1063F40001030393019B9B010293039B029898471B
:1064040000E000BF05B05DF804FB00BF405303008B
:1064140000B583B00190019B002B0AD04FF47A7031
:10642400FFF7DEFF019B013B0193019B002BF5D19C
:1064340000E000BF03B05DF804FB000000B583B0CA
:106444000EF05EF80F4A6B4612681146198002334B
:10645400120C1A70012301930CE0019BDAB26B4613
:10646400114618460EF09EF80A20FFF7D1FF019B53
:1064740001330193019B082BEFDD00BF00BF03B084
:106484005DF804FB8852030030B585B02D492E48D1
:106494000EF018F92C4BB3F900301C462A4BB3F913
:1064A40002301D46284BB3F904301A46254BB3F984
:1064B40000301946234BB3F902301846214BB3F987
:1064C400043003930290019100922B4622461F4907
:1064D4001F480EF0D3FA1F4A1F4BD31ADB081B04C4
:1064E40043F00300184BB3F900301A46164BB3F9C6
:1064F40002301946144BB3F9043000930B46174984
:106504000CF04DF8134A144BD31ADB081B0443F068
:1065140003000C4BB3F900301A460A4BB3F90230AE
:106524001946084BB3F9043000930B460C490CF0A0
:1065340036F80CF073F80346002BFAD100BF00BF05
:1065440005B030BD802B0020782B00208C52030036
:10655400882B002020520300F0510300C052030096
:10656400D852030010B586B001F0CAF80DF0D4FE7D
:106574000EF034F8224A234BD31ADB081B0443F0F1
:106584000303214918460BF0D7FF00238DF8173079
:106594000EF04EF80346002B07D00EF068F80123E6
:1065A4008DF81730FFF770FF0DE018480EF023FD4B
:1065B40003461A46154B1344154A1C46134607CB8B
:1065C40020606160A2604FF49670FFF721FFFFF72F
:1065D40035FF9DF81730002BF9D0FFF755FF0EF06B
:1065E40005F803461A466B460A4918460EF046FA61
:1065F4006B46194605480EF014FD0DF0ADFEE6E7B6
:1066040020520300F0510300F0520300882B0020B5
:106614001C5303002853030000B583B00190019B71
:106624001B681F2B04D9054940F2CD100DF09EF9CB
:106634004FF0A043184603B05DF804FB4853030031
:1066440000B585B00190084611461A4603468DF8F8
:1066540003300B468DF8023013468DF8013001AB40
:106664001846FFF7D9FF03909DF803209DF80230E8
:106674005B001A439DF801309B001A439DF81830C3
:106684001B0242EA03019DF81C301B04019A1943C2
:10669400039B02F5E07243F8221000BF05B05DF8D9
:1066A40004FB00B585B003900023019300230093FD
:1066B4000023012201210398FFF7C2FF00BF05B0A8
:1066C4005DF804FB00B585B003900B468DF80B30E4
:1066D4009DF80B300022019200220092002200213A
:1066E4000398FFF7ADFF00BF05B05DF804FB00B5EC
:1066F40085B0019001AB1846FFF78EFF0390019B14
:10670400012202FA03F31946039800F086F800BF49
:1067140005B05DF804FB00B585B0019001AB1846E7
:10672400FFF77AFF0390019B012202FA03F3194653
:10673400039800F07CF800BF05B05DF804FB00B5D9
:1067440085B0019001AB1846FFF766FF0390039BE9
:10675400D3F804350293029BDA43019B012101FA29
:1067640003F31A40039BC3F80825019B01229A40B6
:10677400029B1A40039BC3F80C2500BF05B05DF8CB
:1067840004FB00B583B001900091009B002B03D162
:106794000198FFF7C0FF02E00198FFF7A8FF00BFD0
:1067A40003B05DF804FB00B585B0019001AB184659
:1067B400FFF732FF0390039800F01FF80246019B95
:1067C40022FA03F303F00103184605B05DF804FB55
:1067D40000B585B0019001AB1846FFF71DFF03908B
:1067E400039800F012F80246019B22FA03F303F027
:1067F4000103184605B05DF804FB82B00190019BCB
:10680400D3F81035184602B0704782B00190019B4E
:10681400D3F80435184602B0704782B00190009155
:10682400019B009AC3F8082500BF02B0704782B0EC
:1068340001900091019B009AC3F80C2500BF02B09F
:106844007047000000B585B00190019B032B03D96C
:1068540011493A200DF08AF8104A019B13441B7821
:106864001846FFF7B5FF0346002B14BF012300238E
:106874008DF80F309DF80F30002B14BF0123002337
:10688400DBB283F00103DBB203F00103DBB2184691
:1068940005B05DF804FB00BF78530300C853030040
:1068A40000B583B00190019B032B03D90749412014
:1068B4000DF05CF8064A019B13441B78002118462E
:1068C400FFF75FFF00BF03B05DF804FB78530300DC
:1068D400C853030000B583B00190019B032B03D977
:1068E400074947200DF042F8064A019B13441B78E0
:1068F40001211846FFF745FF00BF03B05DF804FB14
:1069040078530300C853030000B583B000230193F8
:1069140005E00198FFF7DEFF019B01330193019B22
:10692400032BF6D900BF00BF03B05DF804FB00B52C
:1069340083B00023019305E00198FFF7B1FF019BA9
:1069440001330193019B032BF6D900BF00BF03B0B1
:106954005DF804FB00B583B00190019B032B03D9C0
:1069640007495F200DF002F8064A019B13441B7887
:106974001846FFF7E4FE00BF03B05DF804FB00BF58
:1069840078530300C853030000B583B00023019378
:1069940009E0094A019B13441B781846FFF781FE5E
:1069A400019B01330193019B032BF2D9FFF7ACFF49
:1069B40000BF03B05DF804FBC853030000B585B005
:1069C4000190019B032B03D91149AC200CF0CEFF9D
:1069D400104A019B13441B781846FFF7E4FE034654
:1069E400002B14BF012300238DF80F309DF80F30C6
:1069F400002B14BF01230023DBB283F00103DBB2BD
:106A040003F00103DBB2184605B05DF804FB00BFD8
:106A140078530300CC53030000B583B000230193E3
:106A24000AE0094A019B13441B7803211846FFF727
:106A340049FE019B01330193019B032BF1D900BF54
:106A440000BF03B05DF804FBCC53030084B0019095
:106A54004FF0FF330293002303930DE00A4A039B94
:106A640013441B781A46019B934202D1039B029361
:106A740005E0039B01330393039B032BEED9029B95
:106A8400184604B0704700BFCC53030000B583B070
:106A94000190019B032B03D90549CB200CF066FF21
:106AA400044A019B13441B78184603B05DF804FBA9
:106AB40078530300CC53030000B583B00190019BCD
:106AC40003F00103002B01D0FFF75EFF019B03F0ED
:106AD4000203002B01D0FFF79FFF00BF03B05DF856
:106AE40004FB000000B583B00190019B1B681F2BC1
:106AF40004D9054940F2CD100CF038FF4FF0A04303
:106B0400184603B05DF804FBD053030000B585B00C
:106B140001900B468DF8033001AB1846FFF7E2FFF6
:106B24000390019A039B02F5E07253F82230019A14
:106B340023F44031039B02F5E07243F82210019ADA
:106B4400039B02F5E07253F822109DF803301B04F6
:106B5400019A1943039B02F5E07243F8221000BF27
:106B640005B05DF804FB00B583B00190019B032BD5
:106B740004D80198FFF722FF034600E000231846DB
:106B840003B05DF804FB000000B587B003460A4675
:106B94008DF8073013468DF8063000238DF8173032
:106BA400002304939DF807301846FFF74FFF049025
:106BB400049B032B62D89DF80630022B52D0022B83
:106BC4005CDC002B31D0012B58D13549049A134693
:106BD4005B0013440B441B788DF817303049049A3A
:106BE40013465B0013440B4401331B78002B0ED077
:106BF4002C4B2D4A4FF48041184608F073FF039044
:106C0400039B002B03D1284A9DF8073013702449B5
:106C1400049A13465B0013440B4402331978234A45
:106C2400049B13440A461A7028E01E4B184608F0C9
:106C340091FF1E4A049B134419781948049A134679
:106C44005B001344034402331B78994215D1144961
:106C5400049A13465B0013440B4402331B788DF8EB
:106C640017300AE00E49049A13465B0013440B44A0
:106C740001331B788DF8173000E000BF9DF8173002
:106C8400002B09D00A4B1B68002B05D0084B1B684E
:106C94009DF817201046984700BF07B05DF804FB25
:106CA4003C2C0020482C0020682C00206C2C002058
:106CB400382C002000B583B00190019B1B78022181
:106CC4001846FFF761FF00BF03B05DF804FB000046
:106CD40000B583B00C4B1B78002B0FD0002301931D
:106CE40008E0019B022B02D00198FFF7F3FD019B02
:106CF40001330193019B032BF3D901E0FFF704FE59
:106D040000BF03B05DF804FBF42B00202DE9D04F45
:106D140092B003468DF83F30002311930023109363
:106D2400CC4B1B78002B04D0CA4A00231370FFF706
:106D3400CFFF9DF83F30172B00F23F8201A252F89B
:106D440023F000BFA96D0200C16D0200C16D0200F5
:106D54005D6E0200F96E0200756F02000970020098
:106D6400297002003970020065700200837002000D
:106D7400A1700200BF700200CD700200CD7002004D
:106D8400CD700200CD700200CD700200617102006E
:106D94006F7102008371020097710200B1710200E9
:106DA400B1710200FFF794FFAB4B184608F0D2FE16
:106DB4001190AA4A9DF83F301370FFE10020FFF7BD
:106DC40041FD0346002B0DD00020FFF783FD9DF805
:106DD4003F30022B02D14FF4E16301E04FF47A63B8
:106DE40010930BE00020FFF75BFD9DF83F30022B72
:106DF40001D1C82301E04FF4C8731093974A9DF85A
:106E04003F301370944C109B0022009301924FF07A
:106E140000024FF00003DDE900673946CB03314639
:106E240043EA51433146CA0312F57A71029143F1A0
:106E3400000303934FF4FA624FF00003DDE902010B
:106E44000DF010FD02460B4613460022194620465B
:106E540008F048FE1190B1E10020FFF7F3FC03466F
:106E6400002B0DD00020FFF735FD9DF83F30032B9C
:106E740002D14FF4487301E04FF47A6310930BE0AE
:106E84000020FFF70DFD9DF83F30032B01D1C823EF
:106E940001E04FF4C8731093704A9DF83F301370AB
:106EA4006D4C109B0022049305924FF000024FF0AA
:106EB4000003DDE904673946CB03314643EA514315
:106EC4003146CA0312F57A71069143F10003079320
:106ED4004FF4FA624FF00003DDE906010DF0C2FC45
:106EE40002460B46134600221946204608F0FAFDD6
:106EF400119063E10020FFF7A5FC0346002B06D0A8
:106F04000020FFF7E7FC4FF47A63109305E00020BC
:106F1400FFF7C6FC4FF4C8731093504A9DF83F30F6
:106F240013704D4C109B00229A4693464FF000027A
:106F34004FF000034FEACB3343EA5A434FEACA32D5
:106F440012F57A71089143F1000309934FF4FA6240
:106F54004FF00003DDE908010DF084FC02460B4606
:106F6400134600221946204608F0BCFD119025E185
:106F74000020FFF767FC0346002B0CD00020FFF72E
:106F8400A9FC9DF83F30052B01D1C82301E04FF443
:106F94007A6310930BE00020FFF782FC9DF83F30EA
:106FA400052B01D1C82301E04FF4C87310932B4A79
:106FB4009DF83F301370284C109B00229846914650
:106FC4004FF000024FF000034FEAC93343EA58433D
:106FD4004FEAC83212F57A710A9143F100030B9318
:106FE4004FF4FA624FF00003DDE90A010DF03AFCB8
:106FF40002460B46134600221946204608F072FD4D
:107004001190DBE00020FFF7A5FC144A9DF83F3007
:107014001370114B002240F26661184608F062FDBD
:107024001190CBE00020FFF73BFC0C4A9DF83F3069
:107034001370C3E0074B01221A700120FFF78AFC8A
:10704400054B002240F26661184608F04BFD119092
:10705400B4E000BFED2B0020F82B0020EC2B002027
:10706400594B01221A700120FFF774FC574B002280
:107074004FF40051184608F035FD11909EE0524B34
:1070840001221A700120FFF765FC504B002240F2E8
:107094006661184608F026FD11908FE04A4B0122E4
:1070A4001A700120FFF756FC484B00224FF40051A0
:1070B400184608F017FD119080E0FFF738FC444AA9
:1070C4009DF83F30137079E0424B184608F042FDBA
:1070D40011909DF83F30C3F111031093109B002BC6
:1070E40035D0119B002B32D1109B012B28D9394C60
:1070F400109B9BB21A46C82302FB03F3DA171E4601
:1071040017464FF000024FF00003FB0343EA5643D7
:10711400F20312F57A710C9143F100030D934FF4CD
:10712400FA624FF00003DDE90C010DF09BFB02460F
:107134000B46134600221946204608F0D3FC119052
:107144000220FFF7ADFB244B01221A7036E0022027
:10715400FFF7C0FB204B00221A702FE0FFF7B8FDA9
:107164001B4A9DF83F30137028E0FFF7B1FD002063
:10717400FFF796FB164A9DF83F3013701EE0FFF7A9
:10718400A7FD0120FFF78CFB114A9DF83F301370D7
:1071940014E0FFF79DFD0020FFF782FB0120FFF7BD
:1071A4007FFB0B4A9DF83F30137007E0FFF7BFFBEE
:1071B400074A9DF83F30137000E000BF119B18464A
:1071C40012B0BDE8D08F00BFED2B0020F82B0020BB
:1071D400EC2B0020182C0020F42B002000B583B0E9
:1071E4000190074B1B6803F00103002B04D0054BEF
:1071F4001B781846FFF78AFD00BF03B05DF804FB57
:10720400F02B0020EC2B002000B583B0019002206D
:10721400FFF7A0FB00BF03B05DF804FB00B585B029
:1072240003468DF8073000230393084B1B6803F0D3
:107234000103002B05D09DF807301846FFF766FDC3
:107244000390039B184605B05DF804FBF02B002067
:1072540000B585B001900091002303932A4A019B55
:1072640013602A4A009B1360019B03F00203002B66
:107274002AD00023029308E001220121029800F0A1
:1072840055F80390029B01330293029B032B02D80F
:10729400039B002BF0D0039B002B06D140F233322A
:1072A40004211B4807F092FE0390039B002B02D19C
:1072B40007F014FF0390039B002B05D1154A00210E
:1072C400154808F0DBFB0390019B03F00103002B3E
:1072D40014D00120FFF7F0FB039B002B05D10F4ACC
:1072E40000210F4808F0CAFB0390039B002B05D133
:1072F4000C4A01210C4808F0C1FB0390039B18467B
:1073040005B05DF804FB00BFF02B0020382C0020F2
:107314000C540300B96C020008540300E17102002C
:10732400005403000D7202000454030084B0019061
:107334000B468DF8033013468DF802300023039377
:10734400019B032B3CD89DF80230012B0BD19DF8F7
:107354000330012B04D1019BDBB20E33DBB200E01E
:1073640000238DF802309DF80330022B0FD0022B3E
:1073740023DC002B16D0012B1FD11449019A13468C
:107384005B0013440B449DF802201A701AE00F4965
:10739400019A13465B0013440B4401339DF8022009
:1073A4001A700FE00949019A13465B0013440B4419
:1073B40002339DF802201A7004E00723039301E0CE
:1073C40007230393039B184604B070473C2C00200A
:1073D40000B585B001900B468DF80330019B032B5B
:1073E40014D89DF80330002B01D0032300E00023C0
:1073F4008DF80F300198FFF749FB02469DF80F30D6
:1074040019461046FFF782FB002300E006231846C6
:1074140005B05DF804FB00B583B00190012101982B
:10742400FFF7D6FF0346184603B05DF804FB00B52A
:1074340083B0012200210020FFF778FF0190019B17
:10744400002B04D0019B072B01D0019B1CE00722D9
:1074540002210120FFF76AFF0190019B002B04D059
:10746400019B072B01D0019B0EE004220221002086
:10747400FFF75CFF0190019B002B04D0019B072BBD
:1074840001D0019B00E00023184603B05DF804FB23
:1074940000B583B0012202210020FFF747FF0190CD
:1074A400019B002B04D0019B072B01D0019B1CE006
:1074B400072202210120FFF739FF0190019B002BD5
:1074C40004D0019B072B01D0019B0EE00A2200216E
:1074D4000020FFF72BFF0190019B002B04D0019BA0
:1074E400072B01D0019B00E00023184603B05DF890
:1074F40004FB00B583B001900120FFF734FB034681
:10750400002B03D0019B02221A700CE00020FFF72D
:107514002AFB0346002B03D0019B0B221A7002E0C6
:10752400019B00221A7000BF03B05DF804FB00B594
:1075340083B00020FFF76FFF0190019B002B04D064
:10754400019B062B01D0019B0CE00120FFF763FF98
:107554000190019B002B04D0019B062B01D0019BC1
:1075640000E00023184603B05DF804FB00B585B0C5
:1075740001900091019B1B88102B02D0112B18D075
:107584002FE01A4B1B68002B0DD1FFF750FF03901F
:10759400039B002B07D0164B1B68002B03D0144B06
:1075A4001B6803989847114B1B6801330F4A1360FB
:1075B40017E00E4B1B68013B0C4A13600B4B1B6816
:1075C400002B0DD1FFF764FF0390039B002B07D022
:1075D400074B1B68002B03D0054B1B680398984787
:1075E40000BF00BF05B05DF804FB00BF742C002091
:1075F400702C002000B585B0019000910023039306
:107604000A4A019B1360009B002B02D00098FFF7ED
:1076140070FF074B1B68002B02D1FFF739FF039063
:10762400039B184605B05DF804FB00BF702C0020D6
:10763400742C002000B583B00190019B04331846DC
:1076440005F004FA00BF03B05DF804FB00B583B095
:107654000190019B0433184605F020FA00BF03B0E3
:107664005DF804FB00B589B0059003921A460B46F9
:107674008DF8133013468DF8123000230793059BC1
:10768400181D9DF812209DF813109DF828300093C2
:107694001346039A05F040FD0790079B184609B06E
:1076A4005DF804FB00B587B0039001921A460B46BF
:1076B4008DF80B3013468DF80A3000230593039B95
:1076C400181D9DF80A309DF80B10019A05F04CFD29
:1076D4000590059B184607B05DF804FB82B0019045
:1076E4000091019B1B78002B03D1044B01221A70DB
:1076F40000E000BF00BF02B0704700BF782C00203C
:1077040000B587B06B4600221A605A609A60DA604E
:107714001B2300931A2301934FF0CC73029302238B
:107724008DF80C30694600230A4A0B4803F0ECFD3F
:107734000590059B0493049B002B04D0074A272142
:10774400049807F045FD012000F00AF800BF07B0D7
:107754005DF804FBE17602002C5403003C54030062
:1077640000B583B003468DF807309DF80730002B31
:1077740003D00548FFF75EFF02E00348FFF766FF0A
:1077840000BF03B05DF804FB2C54030000B587B0C0
:10779400029303468DF80F300B468DF80E301346D6
:1077A4008DF80D301F4B00221A709DF80E308DF8A5
:1077B40013300DF113029DF80F10012300930123E0
:1077C4001948FFF74FFF059000BF164B1B78DBB23B
:1077D40083F00103DBB2002BF7D1059B002B01D012
:1077E40000231AE00F4B00221A709DF80D309DF80B
:1077F4000F10029A0C48FFF755FF059000BF094B84
:107804001B78DBB283F00103DBB2002BF7D1059BBD
:10781400002B01D0002300E00123184607B05DF8D7
:1078240004FB00BF782C00202C54030000B587B063
:1078340003468DF80F300B468DF80E3013468DF845
:107844000D309DF80E308DF810309DF80D308DF808
:107854001130104B00221A7004AA9DF80F10002357
:10786400009302230C48FFF7FDFE059000BF094B6F
:107874001B78DBB283F00103DBB2002BF7D1059B4D
:10788400002B01D0002300E00123184607B05DF867
:1078940004FB00BF782C00202C54030000B589B0F1
:1078A40003468DF80F300B468DF80E301346ADF8B5
:1078B4000C309DF80E308DF81430BDF80C30DBB26E
:1078C4008DF8153000238DF81630154B00221A70F0
:1078D40005AA9DF80F100023009303231148FFF716
:1078E400C1FE0790079B0693069B002B05D00E4A0A
:1078F40040F22311069807F06BFC00BF084B1B787D
:10790400DBB283F00103DBB2002BF7D1079B002B22
:107914000CBF01230023DBB2184609B05DF804FB59
:10792400782C00202C5403003C540300BFF34F8FE9
:1079340000BF074BDB6803F4E0620549054B1343C2
:10794400CB60BFF34F8F00BF00BF00BFFCE700BF99
:1079540000ED00E00400FA05024B034A1A6000BF80
:10796400704700BFD82A00200090D00308B500F06B
:1079740069F90346002B06D0A04B1B681B0AA04ADA
:1079840003F01F03136000F089F90346002B02D0B3
:107994009C4B9D4A1A6000F09DF90346002B06D0CB
:1079A4009A4B1B685B0B9A4A03F00703136000F0C1
:1079B400BDF90346002B05D0964BDB68954A23F0AE
:1079C4008073D36000F0CEF90346002B0ED04FF045
:1079D40080430022C3F80C214FF080430022C3F8F7
:1079E40010214FF080430022C3F8382500F0E6F957
:1079F4000346002B02D0884B03221A6000F0FAF9E8
:107A04000346002B0BD0854B05221A60844B0122C0
:107A14001A60844B00221A60834B3F221A6000F0E4
:107A240005FA0346002B76D04FF080537F4AD3F8F3
:107A34000434C2F820354FF080537C4AD3F808341C
:107A4400C2F824354FF08053784AD3F80C34C2F886
:107A540028354FF08053754AD3F81034C2F82C35CA
:107A64004FF08053714AD3F81434C2F830354FF0D4
:107A740080536E4AD3F81834C2F834354FF080532B
:107A84006A4AD3F81C34C2F840354FF08053674A31
:107A9400D3F82034C2F844354FF08053634AD3F806
:107AA4002434C2F848354FF08053604AD3F8283460
:107AB400C2F84C354FF080535C4AD3F82C34C2F8EA
:107AC40050354FF08053594AD3F83034C2F8543506
:107AD4004FF08053554AD3F83434C2F860354FF030
:107AE4008053524AD3F83834C2F864354FF0805387
:107AF4004E4AD3F83C34C2F868354FF080534B4AB1
:107B0400D3F84034C2F86C354FF08053474AD3F869
:107B14004434C2F8703500F0A5F90346002B05D0B3
:107B2400434B1B68434A03F04F03136000F0C6F94C
:107B34000346002B0DD04FF08043D3F8003403F0FC
:107B44000103002B05D04FF080436FF00102C3F80E
:107B5400002400F0DFF90346002B05D0364B1B68E8
:107B6400354A43F480631360344BD3F88830334A86
:107B740043F47003C2F88830BFF34F8F00BFBFF3E4
:107B84006F8F00BF4FF01023D3F80032002B05DBBA
:107B94004FF01023D3F80432002B2BDA284B0122A8
:107BA400C3F8042500BF264BD3F80034002BFAD0C9
:107BB4004FF010231522C3F8002200BF204BD3F846
:107BC4000034002BFAD04FF010231522C3F80422FE
:107BD40000BF1B4BD3F80034002BFAD0184B002203
:107BE400C3F8042500BF164BD3F80034002BFAD099
:107BF400FFF79CFEFFF7B0FE00BF08BD2403001092
:107C04004035014074C007400DF0ADBA4402001085
:107C14003C050040F0ED00E0A00500401056004097
:107C240088560040185600401456004000C00040DA
:107C340058020010E40E00403C17004000ED00E044
:107C440000E00140124B1B68DBB2062B1DD1114B27
:107C54001B6803F00F03002B17D10F4B1B6803F0B5
:107C6400F003302B01D1012310E00B4B1B6803F010
:107C7400F003402B01D1012308E0074B1B6803F0FC
:107C8400F003502B01D1012300E000231846704774
:107C9400E00F00F0E40F00F0E80F00F00A4B1B685F
:107CA400DBB2062B0DD1094B1B6803F00F03002B2D
:107CB40007D1074B1B6803F0F003302B01D10123DC
:107CC40000E0002318467047E00F00F0E40F00F0D6
:107CD400E80F00F0124B1B68DBB2062B1DD1114BD1
:107CE4001B6803F00F03002B17D10F4B1B6803F025
:107CF400F003302B01D1012310E00B4B1B6803F080
:107D0400F003402B01D1012308E0074B1B6803F06B
:107D1400F003502B01D1012300E0002318467047E3
:107D2400E00F00F0E40F00F0E80F00F00A4B1B68CE
:107D3400DBB2062B0DD1094B1B6803F00F03002B9C
:107D440007D1074B1B6803F0F003302B01D101234B
:107D540000E0002318467047E00F00F0E40F00F045
:107D6400E80F00F0124B1B68DBB2062B1DD1114B40
:107D74001B6803F00F03002B17D10F4B1B6803F094
:107D8400F003302B01D1012310E00B4B1B6803F0EF
:107D9400F003402B01D1012308E0074B1B6803F0DB
:107DA400F003502B01D1012300E000231846704753
:107DB400E00F00F0E40F00F0E80F00F00A4B1B683E
:107DC400DBB2062B0DD1094B1B6803F00F03002B0C
:107DD40007D1074B1B6803F0F003302B01D10123BB
:107DE40000E0002318467047E00F00F0E40F00F0B5
:107DF400E80F00F00A4B1B68DBB2062B0DD1094BD0
:107E04001B6803F00F03002B07D1074B1B6803F01B
:107E1400F003302B01D1012300E000231846704702
:107E2400E00F00F0E40F00F0E80F00F00A4B1B68CD
:107E3400DBB2062B0DD1094B1B6803F00F03002B9B
:107E440007D1074B1B6803F0F003502B01D101232A
:107E540000E0002318467047E00F00F0E40F00F044
:107E6400E80F00F0124B1B68DBB2062B1DD1114B3F
:107E74001B6803F00F03002B17D10F4B1B6803F093
:107E8400F003302B01D1012310E00B4B1B6803F0EE
:107E9400F003402B01D1012308E0074B1B6803F0DA
:107EA400F003502B01D1012300E000231846704752
:107EB400E00F00F0E40F00F0E80F00F0124B1B6835
:107EC400DBB2062B1DD1114B1B6803F00F03002BF3
:107ED40017D10F4B1B6803F0F003302B01D10123A2
:107EE40010E00B4B1B6803F0F003402B01D101237E
:107EF40008E0074B1B6803F0F003502B01D101236A
:107F040000E0002318467047E00F00F0E40F00F093
:107F1400E80F00F0064B1B68062B05D1054B1B68C8
:107F2400062B01D1012300E000231846704700BF4F
:107F340030010010340100106DDF704700BF184697
:107F440079DF704700BF18467DDF704700BF1846D1
:107F540064DF704700BF184682B003460091ADF855
:107F64000630BDF80630DAB2009B1A70BDF8063050
:107F74001B0A9AB2009B0133D2B21A70022318462C
:107F840002B0704700B589B0039002911346ADF872
:107F94000630029B1B8803F10902BDF806309A42A1
:107FA40001D90C2353E004AB1846FFF7C5FF079033
:107FB400079B0693069B002B01D0069B47E0029B80
:107FC4001B881A46039B134408221A70029B1B88C1
:107FD40001339AB2029B1A80029B1B881A46039BA8
:107FE40013441B221A70029B1B8801339AB2029B12
:107FF4001A80029B1B881A46039B981804AB013312
:10800400062219460DF056F8029B1B8806339AB2D5
:10801400029B1A809DF8103023F00103DBB2002B81
:1080240007D1029B1B881A46039B134400221A7033
:1080340006E0029B1B881A46039B134401221A7014
:10804400029B1B8801339AB2029B1A8000231846B4
:1080540009B05DF804FB00B589B003900291019268
:10806400ADF80230039B1B78012B05D1039B5B7891
:10807400002B01D1072391E0019B1B889A1CBDF8BA
:1080840002309A420ED8039B1B78012B0CD1019B22
:108094001B881A46039B5B7813449A1CBDF8023074
:1080A4009A4201D90C2379E0019B1B88BDF8022078
:1080B400D31A9BB2023BADF81C30BDF81C30ADF8AE
:1080C4001230019B1B880233029A13440DF11202F1
:1080D40011461846FFF738FF0690069B0593059B4B
:1080E400002B01D0059B59E0039B1B78022B06D083
:1080F400039B5B781A46BDF812309A4209D3BDF847
:108104001230BDF81C209A4203D309238DF81F3086
:1081140016E008238DF81F30039B1B78012B0BD12D
:10812400039B5B781A46BDF81C30934204D3039B2F
:108134005B78ADF8123003E0BDF81C30ADF81230B6
:10814400BDF81230FE2B01D90C2327E0BDF8123004
:10815400DAB2019B1B881946029B0B440132D2B24E
:108164001A70019B1B8801339AB2019B1A80019BF0
:108174001B881A46029B13449DF81F201A70019B0A
:108184001B8801339AB2019B1A80019B1A88BDF89F
:10819400123013449AB2019B1A800023184609B086
:1081A4005DF804FB00B589B0039002911346ADF865
:1081B4000630029B1B881A1DBDF806309A4201D96D
:1081C4000C233AE00DF116031846FFF7B9FE0790A9
:1081D400079B0693069B002B01D0069B2DE0029B78
:1081E4001B881A46039B134403221A70029B1B88A4
:1081F40001339AB2029B1A80029B1B881A46039B86
:10820400134419221A70029B1B8801339AB2029BF1
:108214001A80BDF81620029B1B881946039B0B4449
:1082240019461046FFF798FE03461A46029B1B8820
:1082340013449AB2029B1A800023184609B05DF8D1
:1082440004FB84B0029101921A4603468DF80F3064
:108254001346ADF80C30019B1B88DA1CBDF80C30BA
:108264009A4201D90C2328E0019B1B881A46029BE1
:10827400134402221A70019B1B8801339AB2019B9A
:108284001A80019B1B881A46029B134401221A7010
:10829400019B1B8801339AB2019B1A80019B1B88A6
:1082A4001A46029B13449DF80F201A70019B1B88E9
:1082B40001339AB2019B1A800023184604B0704718
:1082C40084B0029101921A4603468DF80F3013468A
:1082D400ADF80C30019B1B88DA1CBDF80C309A42B7
:1082E40001D90C2328E0019B1B881A46029B1344E6
:1082F40002221A70019B1B8801339AB2019B1A80D7
:10830400019B1B881A46029B13440A221A70019B84
:108314001B8801339AB2019B1A80019B1B881A4661
:10832400029B13449DF80F201A70019B1B88013394
:108334009AB2019B1A800023184604B0704700B516
:108344008FB0039001930B468DF80B3013468DF8D4
:108354000A3000238DF83330109B1B88ADF8303081
:1083640000230D9370E0039B5A680D9B9B001A44F5
:1083740005AB106818600DF11B0105AB002218460F
:10838400FFF7E6FD0A900A9B0993099B002B01D095
:10839400099B7BE09DF81B309DF80A209A4250D13E
:1083A4009DF83330002B01D0002300E002238DF828
:1083B4002330109B1B881A469DF81B301A449DF8E5
:1083C40023301A44BDF844309A4201DD0C235DE0A9
:1083D4009DF8333083F00103DBB2002B16D0109BE1
:1083E4001B8801339AB2109B1A80109B1B881A4673
:1083F400019B13449DF80B201A70109B1B880133BA
:108404009AB2109B1A8001238DF83330109B1B887D
:108414001A46019B1A440DF11B0105AB1846FFF7E0
:1084240097FD0A900A9B0793079B002B01D0079B9B
:108434002CE0109B1B889DF81B2013449AB2109BC0
:108444001A800D9B01330D93039B1B881A460D9BC9
:10845400934288DB9DF83330002B16D0109B1A888A
:10846400BDF83030D31A9BB2013BADF82E30BDF8C5
:108474002E30FF2B01D90C2308E0BDF83030019ACF
:108484001344BDF82E20D2B21A70002318460FB040
:108494005DF804FB00B58BB0059003930B468DF893
:1084A400133013468DF812309DF81310BDF8343094
:1084B40001930C9B0093039B02220598FFF73FFF57
:1084C4000990099B0893089B002B01D0089B14E09A
:1084D4009DF81210BDF8343001930C9B0093039B5C
:1084E40010220598FFF72BFF0990099B0793079B20
:1084F400002B01D0079B00E0002318460BB05DF869
:1085040004FB82B00190019B1B88052B0AD9019BB7
:108514001B88B3F5486F07D9019B1B884FF6FF7280
:10852400934201D0072325E0019B5B88052B0AD9E0
:10853400019B5B88B3F5486F07D9019B5B884FF6B5
:10854400FF72934201D0072314E0019B1B884FF66E
:10855400FF7293420DD0019B5B884FF6FF729342EA
:1085640007D0019B1A88019B5B889A4201D9072393
:1085740000E00023184602B0704700B587B00390AE
:1085840002910192ADF80230019B1B889A1DBDF83F
:1085940002309A4201D90C234BE00398FFF7B1FF54
:1085A4000590059B0493049B002B01D0049B40E0A1
:1085B400019B1B881A46029B134405221A70019BD7
:1085C4001B8801339AB2019B1A80019B1B881A46AF
:1085D400029B134412221A70019B1B8801339AB226
:1085E400019B1A80039B1A88019B1B881946029BD6
:1085F4000B4419461046FFF7AFFC03461A46019B8D
:108604001B8813449AB2019B1A80039B5A88019BCE
:108614001B881946029B0B4419461046FFF79CFC25
:1086240003461A46019B1B8813449AB2019B1A8085
:108634000023184607B05DF804FB00B587B003902B
:1086440002910192ADF80230039B9B88023305939B
:10865400019B1B881A46059B13449A1CBDF80230E3
:108664009A4201D90C2353E0059BFE2B01D90C231C
:108674004EE0059BDAB2019B1B881946029B0B4412
:108684000132D2B21A70019B1B8801339AB2019B4A
:108694001A80019B1B881A46029B1344FF221A70FE
:1086A400019B1B8801339AB2019B1A80039B1A8891
:1086B400019B1B881946029B0B4419461046FFF781
:1086C4004BFC03461A46019B1B8813449AB2019B38
:1086D4001A80039B9B88002B19D0039B9B68002B5B
:1086E40001D1072314E0019B1B881A46029B9818AA
:1086F400039B9968039B9B881A460CF0DBFC019B47
:108704001A88039B9B8813449AB2019B1A80002306
:10871400184607B05DF804FB00B589B003900291D8
:108724000192ADF80230039B9B6A002B01D1072311
:1087340071E000238DF81F3065E0039B996A9DF872
:108744001F2013465B0013449B000B440693069BB7
:108754009B8802330593059BFE2B01D90C235AE019
:10876400059BDAB2019B1B881946029B0B4401321C
:10877400D2B21A70019B1B8801339AB2019B1A80F2
:10878400019B1B881A46029B134416221A70019BF4
:108794001B8801339AB2019B1A80069B1A88019B9D
:1087A4001B881946029B0B4419461046FFF7D4FB5D
:1087B40003461A46019B1B8813449AB2019B1A80F4
:1087C400069B9B88002B19D0069B9B68002B01D12C
:1087D400072320E0019B1B881A46029B9818069BDE
:1087E4009968069B9B881A460CF064FC019B1A88C6
:1087F400069B9B8813449AB2019B1A809DF81F30F4
:1088040001338DF81F30039B93F82C309DF81F2003
:108814009A4292D30023184609B05DF804FB00B5D0
:1088240095B005900491039200231393039B1B8836
:10883400ADF84A30039B00221A80059B93F82D3033
:10884400002B0ED0BDF84A301A4603990498FFF75E
:1088540099FB1390139B1193119B002B01D0119B37
:10886400D8E0059B9B78002B0ED0BDF84A301A4601
:1088740003990498FFF796FC1390139B1093109B95
:10888400002B01D0109BC5E0059BDB78002B10D09A
:10889400059BDB7858B2BDF84A30039A0499FFF778
:1088A400D0FC1390139B0F930F9B002B01D00F9BB5
:1088B400B0E0059B5B68002B11D0059B5B6893F9C6
:1088C4000000BDF84A30039A0499FFF7F9FC1390AD
:1088D400139B0E930E9B002B01D00E9B9AE0059BDD
:1088E4001B89002B14D0059B03F10800BDF84A3006
:1088F4000193039B0093049B06220221FFF7CAFD08
:108904001390139B0D930D9B002B01D00D9B81E0C5
:10891400059B1B8A002B14D0059B03F11000BDF8A6
:108924004A300193039B0093049B07220321FFF722
:10893400B1FD1390139B0C930C9B002B01D00C9B4B
:1089440068E0059B1B8B002B14D0059B03F11800DA
:10895400BDF84A300193039B0093049B1522142114
:10896400FFF798FD1390139B0B930B9B002B01D0E7
:108974000B9B4FE0059B1B6A002B0FD0059B186ACD
:10898400BDF84A30039A0499FFF7F7FD1390139B3F
:108994000A930A9B002B01D00A9B3BE0059B5B6A70
:1089A400002B0FD0059B586ABDF84A30039A0499EE
:1089B400FFF743FE1390139B0993099B002B01D0EF
:1089C400099B27E0059B93F82C30002B0ED0BDF8B3
:1089D4004A30039A04990598FFF79EFE1390139B5F
:1089E4000893089B002B01D0089B13E0059B1B7880
:1089F400002B0ED0BDF84A30039A04990598FFF76E
:108A04002AFB1390139B0793079B002B01D0079B12
:108A140000E0139B184615B05DF804FB86B0039084
:108A240001921A460B46ADF80A3013468DF8093008
:108A3400039B002B02D0019B002B01D100234CE0AF
:108A44000023ADF816300CE0BDF81630039A134439
:108A54001B781A46BDF8163013449BB20133ADF8A7
:108A64001630019B1B88BDF816209A4209D3BDF825
:108A740016300133039A13441B789DF809209A4257
:108A840005D0BDF81620BDF80A309A42DCD3BDF8F3
:108A94001620BDF80A309A4201D300231DE0BDF828
:108AA40016300233ADF81430BDF81630039A13446F
:108AB4001B78013BADF81230BDF81420BDF812301C
:108AC4001A44BDF80A309A4201DD002305E0019BF7
:108AD400BDF814201A80BDF81230184606B070474D
:108AE40000B585B001900B46ADF8023013468DF801
:108AF40001300023ADF80C309DF8013003AABDF815
:108B040002100198FFF78AFF0346ADF80E30BDF856
:108B14000E30002B01D1002304E0BDF80C301A46BE
:108B2400019B1344184605B05DF804FB72DF7047DF
:108B340000BF184673DF704700BF184674DF7047E4
:108B440000BF184682B00190019B93F83034184658
:108B540002B0704784B00190002303930AE0019AA5
:108B6400039B13441B78002B01D0012306E0039BD5
:108B740001330393039B052BF1D90023184604B05A
:108B84007047000082B003468DF807309DF8073027
:108B94005A1C074B83FB02135910D317C91A0B46EF
:108BA4009B000B44D11ACBB2184602B0704700BFE9
:108BB4006766666682B001900091009BDB7B012BA7
:108BC40004D1009B9A88019BA3F8242400BF02B01F
:108BD400704700B585B001900091019B002283F895
:108BE4002E24009B9A88019BB3F824349A4216D110
:108BF400019B1B7983F00103DBB2002B0FD0012111
:108C0400019800F0B1FA0390039B002B07D0019B5D
:108C14009B6B002B03D0019B9B6B0398984700BF71
:108C240005B05DF804FB00B585B001900091009B90
:108C34001B88262B1ED1009B1B7A012B03D0009B83
:108C44001B7A022B17D1019B9B781846FFF79AFFDA
:108C540003461946019800F087FA0390039B002B02
:108C640009D0019B9B6B002B05D0019B9B6B039848
:108C7400984700E000BF05B05DF804FB00B585B07F
:108C840001900B468DF80330019B03F227431846ED
:108C9400FFF760FF03468DF80F309DF80330013B6A
:108CA400032B33D801A252F823F000BFC18C020079
:108CB400E58C0200F98C0200058D0200019B9B7972
:108CC400002B0DD0019B93F8243083F00103DBB219
:108CD400002B05D09DF80F30002B01D0012316E0A6
:108CE400019BDB79002B05D09DF80F30002B01D0C0
:108CF40002230CE0019B1B7A002B01D0032306E026
:108D0400019B5B7A002B01D0042300E0002318466A
:108D140005B05DF804FB00BF82B001900091019B97
:108D2400012283F83120019B0022C3F82024019BF7
:108D340003F22642009B5A60009B00229A60009B2B
:108D440002221A70009B80229A810023184602B0E6
:108D5400704782B001900091019B022283F8312078
:108D6400019B93F82430002B03D0009B07221A7038
:108D740002E0009B03221A70019B1B699AB2009BBC
:108D84009A81019B0022C3F82024019B03F226420E
:108D9400009B5A60019BDA68009B9A600023184686
:108DA40002B0704700B583B00190019B5B79002B42
:108DB4000FD0019B93F82E3483F00103DBB2002B18
:108DC40007D00198FFF7BEFE0346002B01D0012314
:108DD40000E0002303F00103DBB2184603B05DF8A2
:108DE40004FB00B585B001900B468DF80330019B60
:108DF400D3F81004019BB3F8143401221946FFF789
:108E04006FFE0390039B002B03D0039B9DF803206C
:108E14001A70019B03F15400019B03F58261019BCD
:108E24003C331A46FFF782FE0346184605B05DF848
:108E340004FB00B585B001900091019B5A69009B29
:108E44009A60019B9B699AB2009B9A81019B93F85B
:108E54002430002B04D0019B062283F83C2003E03D
:108E6400019B012283F83C200198FFF79BFF0346F6
:108E7400002B13D0009B02221A7504210198FFF7DE
:108E8400B0FF0390039B0293029B002B01D0029B33
:108E94000FE0019B052283F8312003E0019B0322AC
:108EA40083F83120019B03F58262019BC3F82024DF
:108EB4000023184605B05DF804FB00B585B00190A9
:108EC4000091019BDA69009B9A60019B1B6A9AB22C
:108ED400009B9A81019B93F82430002B04D0019BC2
:108EE400062283F83C2003E0019B012283F83C2006
:108EF4000198FFF757FF0346002B13D0009B022273
:108F04001A7504210198FFF76CFF0390039B0293E9
:108F1400029B002B01D0029B0FE0019B062283F8E9
:108F2400312003E0019B042283F83120019B03F5E7
:108F34008262019BC3F820240023184605B05DF823
:108F440004FB82B00190019B9B78002B06D0019B0F
:108F540093F82030002B01D000230AE0019B9B6A88
:108F6400042B03D0019B5B6A042B01D1002300E096
:108F74000123184602B0704784B00190019B93F816
:108F84002430002B03D0EE23ADF80E3002E01F2373
:108F9400ADF80E30BDF80E30184604B0704782B0FC
:108FA40001900B468DF80330019B9DF8032083F854
:108FB400302000BF02B0704730B587B001900091F7
:108FC400009B002B02D0019B002B01D10E23B8E0A3
:108FD400009B78331846FFF7B4FF034683F0010380
:108FE400DBB2002B01D00723ABE0019B00229A7077
:108FF400019A009B141D03F178050FCD0FC40FCD0A
:109004000FC495E8070084E80700019B002283F859
:109014003020009BD3F8A420019B5A63009BD3F813
:10902400A820019B9A63019B4FF6FF72A3F82424A6
:10903400019B03F58262019BC3F82024019B03F288
:1090440026430722002118460CF066F8019B1B7882
:1090540083F00103DBB2002B03D0019BFF2283F8D2
:109064005420019B03F15502019BC3F8102401987D
:10907400FFF782FF03461A46019BA3F814240098C5
:10908400019B03F15501019B03F214431A46FFF7B8
:10909400C6FB0590059B0493049B002B01D0049B05
:1090A4004FE0019B03F23122019BC3F8182401987D
:1090B400FFF762FF03461A46019BA3F81C24009B9A
:1090C40003F13C00019BD3F81814019B03F21C43E9
:1090D4001A46FFF7A4FB0590059B0393039B002B03
:1090E40001D0039B2DE0019B012283F85120019BB9
:1090F4009B699AB2019BA3F84820019B012283F843
:109104003C20019B00221A64019B002283F850201A
:10911400019B5A69019B5A64019B03F15400019B12
:109124003C331A460021FFF701FD0590059B02938D
:10913400029B002B01D0029B03E0019B01221A70C9
:10914400059B184607B030BD82B00190019B1B6897
:10915400012B03D0019B1B68022B01D1012300E0EA
:109164000023184602B0704700B585B001900B4645
:109174008DF80330019B1B7883F00103DBB2002BD5
:1091840001D0082309E1019B9DF803209A70019BFB
:1091940003F226430722002118460BF0BDFF019B72
:1091A4009B79002B03D0019B9B78012B0FD0019B53
:1091B400DB79002B03D0019B9B78012B07D0019B0B
:1091C400DB79002B14D0019B9B78022B10D1019BDF
:1091D4005B6B002B08D0019B012283F82D24019B9B
:1091E4005B6B0820984703E0019B002283F82D2441
:1091F4009DF8033019460198FFF740FD03461A46CF
:10920400019B9A70019B5B6B002B20D0019B9B7888
:10921400032B03D0019B9B78042B18D1019B5B7912
:10922400002B14D0019B93F82E3483F00103DBB29E
:10923400002B0CD0019B002283F83024019B0122D7
:1092440083F82F24019B5B6B0720984703E0019B65
:10925400002283F82F24019B3C3318220021184656
:109264000BF05AFF019B012283F83C20019B2C3315
:109274001846FFF769FF0346002B06D0019BDB6A03
:10928400DAB2019B83F8512003E0019B012283F8A9
:109294005120019B93F82430002B12D0019B2833DA
:1092A4001846FFF751FF0346002B06D0019B9B6A2B
:1092B400DAB2019B83F8522003E0019B012283F878
:1092C4005220019B002283F85020019B9B78042BA1
:1092D40031D801A252F823F031930200F192020036
:1092E400019302001193020021930200019B3C337D
:1092F40019460198FFF710FD03901DE0019B3C33D4
:1093040019460198FFF725FD039015E0019B3C33B6
:1093140019460198FFF78DFD03900DE0019B3C3346
:1093240019460198FFF7C9FD039005E0019B00224F
:1093340083F8312000E000BF019B9B78002B20D0F4
:10934400019B03F15400019BD3F82014019B3C338F
:109354001A46FFF7EBFB0390039B002B01D0039B02
:109364001BE0019B93F85420019B93F8303019467D
:109374001046FFF7DFFB0390039B002B01D0039BF8
:109384000BE0019B5B6B002B06D0019B5B6B019A8E
:1093940092F83120104698470023184605B05DF82E
:1093A40004FB00BF00B585B001900091009B0393BE
:1093B400019B1B88262B10D0262B13DC102B02D0EC
:1093C400112B05D00EE001990398FFF7F3FB0AE097
:1093D40001990398FFF7FDFB05E001990398FFF756
:1093E40022FC00E000BF00BF05B05DF804FB00B53F
:1093F40085B00190019B93F854301846FFF79EFB0B
:10940400019B012283F82E24019B002283F830243F
:10941400019B002283F8502006210198FFF7E1FC0C
:109424000390039B0293029B002B01D0029B12E04A
:10943400019B9B7819460198FFF796FE0390039BC6
:10944400002B07D0019B9B6B002B03D0019B9B6BD4
:10945400039898470023184605B05DF804FB75DFB0
:10946400704700BF184676DF704700BF18467ADFA2
:10947400704700BF18467BDF704700BF18460000E6
:1094840084B00346ADF806300023039316E00F4979
:10949400039A13469B0013449B000B441B88BDF89E
:1094A40006209A4207D1039A13469B0013449B005B
:1094B400064A134406E0039B01330393039B002BEA
:1094C400E5D00023184604B0704700BFA02C00204C
:1094D40082B001900B46ADF80230019BBDF802202A
:1094E4001A80019B00221A72019B054903F10A02AA
:1094F4000B4603CB1060516000BF02B0704700BF41
:10950400D02C002082B00190019B4FF6FF721A808C
:1095140000BF02B0704788B00390029111461A460A
:109524000B46ADF806301346ADF80430039B9B8818
:109534001A46BDF8063013440793039B9B881946CB
:10954400039B9B88BDF80620934228BF13469BB219
:10955400CB1A0693039BDB881A46BDF804301344E8
:109564000593039BDB881946039BDB88BDF8042025
:10957400934228BF13469BB2CB1A0493029B5A888A
:10958400039B1B889A4205D3029B5A88039B5B88E2
:109594009A4201D900231CE0029B9B881A46069B31
:1095A400934205D8029B9B881A46079B934201D29B
:1095B40000230EE0029BDB881A46049B934205D8E5
:1095C400029BDB881A46059B934201D2002300E0EC
:1095D4000123184608B0704700B583B00190064BCC
:1095E4009B69002B03D0044B9B690198984700BFEB
:1095F40003B05DF804FB00BFB42C002000B585B0B7
:1096040003460091ADF80630BDF8063000991846BF
:10961400FFF725FF0390039B002B05D0039B112B21
:1096240002D00398FFF7D8FF039B002B0CBF012344
:109634000023DBB2184605B05DF804FB00B589B021
:109644000190019B0793079B9BB21846FFF718FFF5
:109654000690069B002B42D0069B1A7A224B1B7B5A
:109664009A4215D2079B9AB2069B0A3319461046B2
:10967400FFF7C4FF03468DF813309DF81330002B19
:109684002DD0069B1B7A0133DAB2069B1A7226E0B0
:10969400069B00221A72144B1B7C002B0FD0079BD5
:1096A4009BB23B211846FFF7DEFE0590059B002B7D
:1096B40005D0059B082B02D00598FFF78DFF0A4BB8
:1096C4005B69002B0BD000238DF80C30079B9BB2F9
:1096D400ADF80E30044B5B6903AA1046984700BFEF
:1096E40009B05DF804FB00BFB42C002030B587B08E
:1096F4000190019B002B01D10E2353E02B4A019BC7
:1097040014461D460FCD0FC495E8070084E80700F2
:10971400264B274A1A60019B1B68002B11D0019B22
:109724001B681846FFF7A3FE0490049B002B01D08E
:10973400049B37E0019B1A681D4B1068516803C3F2
:1097440008E01B48FFF797FE0490049B002B01D010
:10975400049B27E00023059320E0059A13469B0011
:1097640013449B00134A134403930398FFF7CAFE60
:10977400059B5B01104A1A44039B5A60039B043304
:109784000E4A0021184606F079F90490049B002B38
:1097940001D0032306E0059B01330593059B002BB1
:1097A400DBD00023184607B030BD00BFB42C002026
:1097B400D02C0020A02C0020802C002041960200F8
:1097C40000B587B003460091ADF80630009B5B7A84
:1097D400002B1AD1009B1B7A002B03D1164B5B681C
:1097E400059302E0144B9B680593009B5B68BDF8EE
:1097F40006200599184606F075F90490049B002B81
:1098040016D00498FFF7E8FE12E0009B00221A72BB
:10981400094B5B69002B0BD001238DF80C30BDF88C
:109824000630ADF80E30044B5B6903AA1046984726
:1098340000BF07B05DF804FBB42C002000B585B070
:109844000190019BDB7B8DF80F30019B9B88ADF869
:109854000C309DF80F30012B2CD14FF6FF70FFF721
:109864000FFE0290029B002B03D10420FFF7B4FEED
:1098740021E0BDF80C3019460298FFF729FE029B3F
:1098840003F10A00019B03F110014FF6FF7340F24C
:10989400F312FFF740FE03461A46029B5A72074B27
:1098A400DB89002B07D1BDF80C3002991846FFF76D
:1098B40087FF00E000BF05B05DF804FBB42C002076
:1098C40000B587B00190019B9B88ADF81630BDF8B8
:1098D40016301846FFF7D4FD0490049B002B0ED0DD
:1098E400049B5B68184606F035F90390039B002B34
:1098F40002D00398FFF770FE0498FFF703FE00BF41
:1099040007B05DF804FB000000B587B00190019B2F
:1099140006330593059B1A88194BDB899A422BD190
:10992400059B5B89022B27D1019B9B88ADF81230E4
:10993400BDF812301846FFF7A3FD0390039B002BDC
:109944001AD0059B0C33184600F074FA0346002B1A
:1099540006D0BDF8123003991846FFF731FF0BE02B
:10996400039B5B68184606F0F5F80290029B002BF7
:1099740002D00298FFF730FE00BF07B05DF804FB89
:10998400B42C002000B585B00190019B9B88ADF8F4
:109994000E30BDF80E301846FFF772FD0290029BA0
:1099A400002B15D0029B03F10A00019B03F108016F
:1099B4004FF6FF7340F2F312FFF7ADFD03461A466C
:1099C400029B5A72BDF80E3002991846FFF7F8FE52
:1099D40000BF05B05DF804FB00B583B001900091B1
:1099E400019B1B88502B12D0502B18DC122B12D049
:1099F400122B14DC102B02D0112B04D00FE0019891
:109A0400FFF71CFF0CE00198FFF75AFF08E00198EC
:109A1400FFF77AFF04E00198FFF7B4FF00E000BF0E
:109A240000BF03B05DF804FB30B58FB00190009126
:109A340000230293009B002B1AD000230D9314E003
:109A44006B460D99184607F066F80346002B09D0BB
:109A5400029B5A1C02920D9A92B25B0038336B44FB
:109A640023F82C2C0D9B01330D930D9B132BE7D95D
:109A7400019B1D4602AC0FCC0FC50FCC0FC594E85B
:109A8400070085E8070001980FB030BD00B583B02A
:109A94000346ADF80630BDF80630132B01D9002378
:109AA4000CE0BDF806301946064807F003F8BDF887
:109AB40006301946044806F0FDFF0123184603B09A
:109AC4005DF804FBE02C0020DC2C002000B585B000
:109AD4000346ADF80630002303930DE0039B9B007F
:109AE400094A13440433BDF806201146184606F00B
:109AF400F9FF039B01330393039B1D2BEED900BF96
:109B040000BF05B05DF804FBD82C002000B583B07D
:109B14000346ADF80630BDF806301946034806F092
:109B2400E1FF00BF03B05DF804FB00BFE02C0020A0
:109B340030B59BB0184B9B68DB431893164B5A689F
:109B440018AB1146184607F045F8189A6B461146AB
:109B54001846FFF769FF0DAC6D460FCD0FC40FCD4E
:109B64000FC495E8070084E80700002319930BE06D
:109B7400199B5B0068336B4433F8303C1846FFF79D
:109B8400A5FF199B013319930D9B199A9A42EFD3A0
:109B940000BF00BF1BB030BDD82C002000B583B07F
:109BA40001900B46ADF8023013468DF801309DF854
:109BB4000130002B06D0BDF802301946019806F09A
:109BC40079FF05E0BDF802301946019806F08AFFD6
:109BD40000BF03B05DF804FB00B585B001900091AF
:109BE400019B9B88ADF80E30019B1B88103B0A2B10
:109BF40000F2888001A252F823F000BF2D9C0200DD
:109C0400699C0200099D0200099D0200099D020051
:109C1400099D0200099D0200099D0200099D0200A0
:109C2400D39C0200759C0200FFF782FFBDF80E3042
:109C34001846FFF72BFF034683F00103DBB2002B2A
:109C440005D0324AF021042005F0C2FA57E0019B06
:109C5400DB7B012B53D0BDF80E3019462C4806F09F
:109C640029FF4CE0BDF80E301846FFF74FFF49E0DE
:109C7400019B1B7AC3F30313DBB28DF80D309DF8FF
:109C84000D30032B8CBF01230023DAB2BDF80E3054
:109C940019462048FFF782FF9DF80D30022B8CBF38
:109CA40001230023DAB2BDF80E3019461A48FFF733
:109CB40075FF9DF80D30012B8CBF01230023DAB210
:109CC400BDF80E3019461548FFF768FF1AE0019BEE
:109CD4001B7A002B15D1019B5B7AC3F3C003DBB263
:109CE400002B14BF012300238DF80C309DF80C20A9
:109CF400BDF80E3019460748FFF750FF01E000BFDA
:109D040000E000BF00BF05B05DF804FBB0540300E1
:109D1400E42C0020F02C0020EC2C0020E82C002067
:109D240000B583B00346ADF80630BDF80630132BFA
:109D340001D9002306E0BDF806301946034806F0B1
:109D4400EAFE0346184603B05DF804FBDC2C002051
:109D540000B583B00346ADF80630BDF806301846AA
:109D6400FFF7DEFF0346002B02D0BDF8063000E00B
:109D74001423184603B05DF804FB00B587B00390C4
:109D84000B460192ADF80A30019B002B01D10E2342
:109D940038E0019B00221A60039B002B01D10E23A3
:109DA40030E0039B1B68002B01D10E232AE0039BA8
:109DB400DB8803F003039BB2002B01D0072321E0CF
:109DC400BDF80A301846FFF7C3FF03468DF8173075
:109DD4009DF81730142B01D1052313E0039B1B7945
:109DE4009DF817209A4201D304230BE0039B1B68C0
:109DF4009DF817200399C98801FB02F21A44019BBC
:109E04001A600023184607B05DF804FB82B0019085
:109E1400019B1B781AB2019B01331B781B021BB2F6
:109E240013431BB29BB2184602B07047AADF7047B7
:109E340000BF184600B585B001900198FFF7E6FF12
:109E44000346ADF80E30BDF80E3003F00103002BCD
:109E540014BF01230023DBB2184605B05DF804FBF0
:109E640082B0034600918DF80730009A13786FF39F
:109E740003031370009A13786FF3071313709DF89C
:109E84000730052B5BD801A252F823F0A99E0200EB
:109E9400BF9E0200D99E0200F39E02000D9F0200A5
:109EA400279F0200009A13786FF303031370009A3C
:109EB40013786FF30713137040E0009A13780121AD
:109EC40061F303031370009A1378012161F30713FC
:109ED400137033E0009A1378012161F303031370C4
:109EE400009A1378022161F30713137026E0009A95
:109EF4001378012161F303031370009A137803218B
:109F040061F30713137019E0009A1378022161F3C7
:109F140003031370009A1378012161F3071313707C
:109F24000CE0009A1378022161F303031370009A82
:109F34001378022161F30713137000BF00BF00BF41
:109F440002B0704700B595B0034602910192ADF896
:109F54000E30029B9B78002B03D101238DF81E3019
:109F640003E0029B9B788DF81E30029B1B88ADF8A2
:109F74001C3006AB0322002118460BF0CDF8029BDF
:109F84005B7C06AA11461846FFF76AFF029B9A7C7F
:109F940006AB013319461046FFF762FF029BDA7BDA
:109FA4009DF81A3062F3C3038DF81A30029B1A7CB1
:109FB4009DF81A3062F304138DF81A30029B1A7B51
:109FC4009DF81A3062F300038DF81A30029B1B7D52
:109FD400002B01D0022200E001229DF81A3062F326
:109FE40042038DF81A300DAB1C22002118460BF0E9
:109FF40093F8029B5B7B03F01003DBB2002B06D1CA
:10A00400029B5B7B03F02003DBB2002B24D004AB68
:10A014000322002118460BF07FF8029BDA7C04AB84
:10A02400013319461046FFF71BFF9DF8103001223B
:10A0340062F303038DF810309DF81030012262F3AF
:10A0440007138DF810309DF81230012262F3420399
:10A054008DF8123004AB1293029B5B7B8DF8343085
:10A06400029B9B7B8DF8353008AB142200211846E7
:10A074000BF052F807AB089306AB0993029B9B883D
:10A08400ADF82C30029B9B68002B06D0029BDB882A
:10A09400ADF82830029B9B680C93029B9B69002BB4
:10A0A4004FD005AB0322002118460BF035F8029B74
:10A0B4009B691B88ADF83C30029B9B695B88ADF8BB
:10A0C4003E30029B9B695B680E9305AB1193029B28
:10A0D4009B691B7B05AA11461846FFF7C1FE029B2C
:10A0E4009B695A7B05AB013319461046FFF7B8FE4E
:10A0F400029B9B699A7A9DF8163062F3C3038DF82C
:10A104001630029B9B69DA7A9DF8163062F30413C9
:10A114008DF81630029B9B691A7A9DF8163062F30B
:10A1240000038DF81630029B9B699B7B002B01D0AA
:10A13400022200E001229DF8163062F342038DF8FA
:10A144001630029BDB69002B02D0029BDB69109363
:10A1540008AA0DA9BDF80E00019BFFF767FE034690
:10A16400184615B05DF804FB90DF704700BF184631
:10A17400A5DF704700BF1846B5DF704700BF18461B
:10A1840082B00190019BF7221A80019B17225A800A
:10A19400019B00221A71019B00225A71019BFB2230
:10A1A4009A71019B1B22DA7100BF02B07047000054
:10A1B40030B589B003460A46ADF806301346ADF80B
:10A1C4000430BDF80430ADF81430BDF80430ADF8F7
:10A1D40016300023ADF818300023ADF81A3003AB65
:10A1E40000221A609A8003AA05A9BDF80630184611
:10A1F400FFF7BAFF0790079B002B39D01E4A1F4B6D
:10A20400D31ADB081B0443F00104BDF80650079879
:10A2140007F0D2FC03462A461949204608F0ABF958
:10A22400BDF80C30002B03D1BDF80E30002B0ED03E
:10A23400114A124BD31ADB081B0443F00100BDF88A
:10A244000C301A46BDF80E300E4908F094F9BDF8EA
:10A254001030002B0CD0084A084BD31ADB081B041F
:10A2640043F00103BDF810200749184608F072F9BD
:10A27400079B184609B030BD48520300F051030053
:10A284001C55030068550300A855030010B586B09B
:10A2940001900091009B9B88ADF80E30BDF80E3004
:10A2A400DB00019A134406330593019B1A79059B3D
:10A2B4009A71009BDB7B012B02D0022B05D009E0B5
:10A2C400019B1A88059B1A8004E0019B5A88059B10
:10A2D4001A8000BF059B1A88059B5B889A4226D981
:10A2E400059B1A88BDF80E3011461846FFF740FF4B
:10A2F4000490049B002B03D1059B01225A7116E0A4
:10A30400049B112B03D1059B01221A710FE0114A02
:10A31400114BD31ADB081B0443F00104049807F023
:10A324004BFC03461A460D49204608F013F9059BD9
:10A334009A79059BDB799A4208D9059B9B791A4641
:10A34400BDF80E3011461846FFF732FF00BF06B0C5
:10A3540010BD00BF48520300F05103000056030033
:10A3640000B583B001900091009B9B88DB00019AAB
:10A37400134406331846FFF703FF00BF03B05DF82C
:10A3840004FB00B587B001900091009B9B88ADF859
:10A394001630009B5B89ADF81430BDF81630DB0035
:10A3A400019A134406330493049B1B88BDF81420BC
:10A3B400934228BF13469AB2049B5A80049B5B883D
:10A3C400172B38BF17239AB2049B5A80019B1B6931
:10A3D400002B15D0049B5B79002B11D040F677231A
:10A3E400ADF80830BDF81630ADF80A30049B5B8830
:10A3F400ADF80C30019B1B6902AA114601989847DD
:10A40400049B00225A71049B00221A7100BF07B0FA
:10A414005DF804FB10B588B001900091009B9B8807
:10A42400ADF81A30009BDB88ADF81830BDF81A304F
:10A43400DB00019A134406330593BDF81830172B3B
:10A4440038BF1723ADF81830059B1B88BDF81820BA
:10A45400934228BF13469AB2059B5A80059B00225B
:10A464001A71059B1A88BDF81A3011461846FFF771
:10A4740083FE0790079B002B0FD0174A174BD31A64
:10A48400DB081B0443F00104079807F095FB03461F
:10A494001A461349204608F05DF8059B5B79002BAA
:10A4A40016D1019B1B69002B13D040F67723ADF81E
:10A4B4000C30BDF81A30ADF80E30059B5B88ADF852
:10A4C4001030019B1B6903AA11460198984700E0CC
:10A4D40000BF08B010BD00BF48520300F051030094
:10A4E4003456030030B591B001900091009B04AC48
:10A4F4001D1D0FCD0FC40FCD0FC495E8070084E8D0
:10A504000700BDF81030ADF83E30BDF81420BDF89A
:10A514003E30D1B2019ADB0013440A465A73019BC0
:10A524001B69002B19D002AB00221A609A804DF6E9
:10A534007A23ADF80830BDF83E30ADF80A30BDF8E6
:10A544003E30019ADB0013445B7B8DF80C30019B99
:10A554001B6902AA11460198984700BF11B030BD8B
:10A5640000B587B001900091009B04330593059BCF
:10A574001B88DB00019A134406330493059B9B88D4
:10A584008DF80F30049B9B799DF80F20934228BFD0
:10A5940013468DF80E30059B1B889DF80E2092B251
:10A5A40011461846FFF704FE00BF07B05DF804FB30
:10A5B40000B585B001900091019B002B01D10E23C1
:10A5C4001DE0019B009A1A61019BF7221A80019BEE
:10A5D400F7225A80019BFB221A71002303930AE09D
:10A5E400039BDB00019A134406331846FFF7C8FDAA
:10A5F400039B01330393039B002BF1D000231846E4
:10A6040005B05DF804FB82B001900B46ADF8023052
:10A61400019B002B01D10E230EE0BDF80230162B56
:10A6240003D9BDF80230F72B01D9072304E0019BBD
:10A63400BDF802201A800023184602B070470000BB
:10A6440010B586B001900091009B0593019B9B88F7
:10A65400ADF81230BDF81230002B40F09880019B09
:10A664001B88552B48D0552B55DC242B32DC102B62
:10A6740051DB103B142B4ED801A252F823F000BF3B
:10A68400DFA60200E9A602001BA702001BA7020026
:10A694001BA702001BA702001BA702001BA70200A6
:10A6A4001BA702001BA702001BA702001BA7020096
:10A6B4001BA702001BA702001BA702001BA7020086
:10A6C4001BA702001BA702001BA7020011A7020080
:10A6D40007A702003A2B0AD01DE001990598FFF75D
:10A6E400D5FD19E001990598FFF73AFE14E00199A8
:10A6F4000598FFF746FE0FE001990598FFF78AFEDB
:10A704000AE001990598FFF7EDFE05E00199059827
:10A71400FFF726FF00E000BFBDF81230059ADB000A
:10A7240013449B7A002B33D0BDF81230059ADB001A
:10A734001344DA88BDF8123011461846FFF718FDA5
:10A744000390039B002B0ED1BDF81230059ADB0059
:10A75400134400229A72BDF81230059ADB001344A8
:10A764000122DA7214E0039B112B11D0094A0A4B1F
:10A77400D31ADB081B0443F00104039807F01CFA06
:10A7840003461A460549204607F0E4FE00E000BFF0
:10A7940006B010BD48520300F051030000560300F8
:10A7A400B0DF704700BF184666DF704700BF184629
:10A7B40082B001900091019B002B01D10E2316E081
:10A7C400009B002B01D10E2311E0019B1B78DE2B93
:10A7D40001D108230BE0009B1A68019B5A60019B7E
:10A7E400DE221A70019B4FF6FF725A80002318462E
:10A7F40002B0704782B001900B46ADF80230019B65
:10A80400002B01D10E230AE0019B1B78DE2B01D023
:10A81400082304E0019BBDF802205A800023184657
:10A8240002B0704700B585B00190019B1B7A002BE4
:10A8340018D0019B5B8800211846FFF7B5FF0390F1
:10A84400039B002B03D1019B00221A720AE0039B95
:10A85400112B03D1019B01221A7203E0019B5B6857
:10A864000398984700BF05B05DF804FB00B583B0BA
:10A8740001900091009B1B79012B0BD1009B1A883E
:10A88400019B5B889A4205D1019B01221A720198AF
:10A89400FFF7C8FF00BF03B05DF804FB82B001906E
:10A8A400009100BF02B0704700B589B001900091DB
:10A8B400009B1A88019B5B889A4236D1009B023325
:10A8C4000793079B1B78022B31D1079B1B7A042B20
:10A8D40007D0079B1B7A062B03D0079B1B7A052BFB
:10A8E40027D102AB00221A605A609A60DA60022310
:10A8F4008DF808304FF4C073ADF80C30079B1B7A09
:10A90400052B02D10023ADF80C30009B1B8802AA52
:10A9140011461846FFF744FF0690069B002B09D00A
:10A92400019B5B680698984704E000BF02E000BF03
:10A9340000E000BF09B05DF804FB00B585B00190EC
:10A944000091009B002B43D0019B002B40D0009B27
:10A954000393039B1B78DE2B3AD1019B9A88039BBC
:10A964005B889A4202D10398FFF75CFF019B1B8826
:10A97400512B18D0512B28DC112B1BD0112B24DC8C
:10A98400012B02D0022B07D01FE0019B0433194690
:10A994000398FFF76BFF1BE0019B043319460398F0
:10A9A400FFF77CFF14E0019B043319460398FFF77B
:10A9B4007BFF0DE0019B9A88039B5B889A4206D13A
:10A9C400039B4FF6FF725A8001E000BF00E000BF16
:10A9D40005B05DF804FBA8DF704700BF1846ADDF83
:10A9E400704700BF1846AEDF704700BF184662DFED
:10A9F400704700BF184600B58FB001900091002346
:10AA04000393019B5869009B9B8803AA1946FFF78F
:10AA1400B4F90D9005AB0822002118460AF07CFB1E
:10AA240004AB06930223ADF814300023ADF81630BE
:10AA3400009B9888019B1B8905AA1946FFF7CFFF45
:10AA44000D900D9B002B26D1019B9B69002B22D0DE
:10AA5400069B1846FFF7EEF90346002B1BD0039B19
:10AA6400002B02D0039B01221A7007AB182200218D
:10AA740018460AF051FB02238DF81C30019B089301
:10AA8400009B9B88ADF82430039B0A93019B9B6930
:10AA940007AA1046984700BF0FB05DF804FB00B545
:10AAA4008DB001900091009B06330B93019B586974
:10AAB400009B9B8803AA1946FFF75FF90A9004AB31
:10AAC4001822002118460AF027FB019B0593009BDE
:10AAD4009B88ADF81830039B07930B9B1A88019B46
:10AAE4001B899A4225D10B9B5B89022B21D1039BA5
:10AAF400002B38D00B9B0C331846FFF79BF9034609
:10AB0400002B06D0039B01221A7002238DF810300B
:10AB140005E0039B00221A7003238DF81030019B7B
:10AB24009B69002B1FD0019B9B6904AA1046984780
:10AB340019E00B9B1A88019B9B899A4214D1019BB3
:10AB44009B69002B10D000238DF810300B9B0C3325
:10AB540008930B9B5B89ADF82430019B9B6904AA85
:10AB64001046984700E000BF00BF0DB05DF804FB3D
:10AB740000B58BB001900091019B5869009B9B88A4
:10AB840002AA1946FFF7F9F80990099B002B1AD17C
:10AB9400029B1B78002B17D003AB18220021184608
:10ABA4000AF0BAFA01238DF80C30019B0493009B40
:10ABB4009B88ADF81430029B0693019B9B6903AA02
:10ABC4001046984700E000BF0BB05DF804FB00B5E9
:10ABD40085B001900091009B002B1ED0019B002B9F
:10ABE4001BD0009B0393019B1B88572B10D0572B22
:10ABF40015DC102B02D0502B05D010E001990398DE
:10AC0400FFF7F9FE0CE001990398FFF748FF07E00E
:10AC140001990398FFF7ACFF02E000BF00E000BF1A
:10AC240005B05DF804FB000010B592B001900091EE
:10AC34004F4B0AAC0FCB84E80F00019B002B01D1D2
:10AC44000E2391E0009B002B01D10E238CE0009B8E
:10AC54001A68019B9A61019A0AAB11461846FFF7DC
:10AC6400C6FE1190119B1093109B002B01D0109BDA
:10AC74007AE0019B1B788DF83A300123ADF8383027
:10AC8400019B9A1C0EAB19460120FFF7A4FE1190FC
:10AC9400119B0F930F9B002B01D00F9B64E002AB21
:10ACA4002022002118460AF037FA0223ADF80830B2
:10ACB400019B1B788DF80A30F423ADF80C30012386
:10ACC400ADF80E3001238DF814309DF8153043F0A3
:10ACD40008038DF815309DF8153043F004038DF802
:10ACE400153001238DF8193001238DF81A30019B9A
:10ACF4005888019B03F10C0202AB1946FFF722F9B5
:10AD04001190119B002B01D0119B2DE002AB20224E
:10AD1400002118460AF000FA0323ADF80830019B1D
:10AD24001B788DF80A30F423ADF80C300123ADF80C
:10AD34000E3001238DF814309DF8153043F01003C4
:10AD44008DF8153001238DF8193001238DF81A3050
:10AD540001238DF81B30019B5888019B1A1D02ABFF
:10AD64001946FFF7EFF80346184612B010BD00BFAE
:10AD74006C56030000B58DB0039002910192ADF8BA
:10AD84000230039B002B01D10E2342E0039B5B693D
:10AD940005AABDF802101846FEF7EFFF0B900B9BB7
:10ADA4000A930A9B002B01D00A9B32E0BDF80230C3
:10ADB4004FF6FF72934202D0059B002B01D105236D
:10ADC40027E0059B1B7883F00103DBB2002B01D045
:10ADD40008231EE0019B1B88F42B01D9072318E0EC
:10ADE40006AB1022002118460AF096F9039B9B88B3
:10ADF400ADF81830029B0993019B089301238DF849
:10AE04001A3006AABDF8023011461846FFF7EBFDCA
:10AE1400034618460DB05DF804FB000082B00346FB
:10AE24008DF807309DF8073003F01F0206499DF99D
:10AE340007305B09012000FA02F2203341F8232095
:10AE440000BF02B0704700BF00E100E008B508F0A1
:10AE5400E5FA034683F00103DBB2002B03D1054975
:10AE6400792008F083FD00F093FC034B00229A70D4
:10AE740000BF08BD84560300542D002000B583B0E4
:10AE840000230193144B1B78002B02D085230193DC
:10AE94001CE0114B00229A600F4B00225A600E4BAB
:10AEA40000221A610C4B0022DA600C4800F036FCD8
:10AEB400019008F0B3FA034683F00103DBB2002BE0
:10AEC40001D000F051FC044B01221A70019B18467A
:10AED40003B05DF804FB00BF542D0020B9AF02009D
:10AEE40084B00190019B1B680393039B002B03D048
:10AEF400039B1A68019B1A60039B184604B07047B1
:10AF040000B583B0164B1B78002B04D115494FF4C0
:10AF1400857008F02BFD124BDB68002B04D111491E
:10AF240040F20B1008F022FD00238DF807300DF1DC
:10AF34000703184605F09AF8094BDB68013B084AF9
:10AF4400D360074BDB68002B01D1FFF77FFF9DF82F
:10AF54000730184605F0A0F800BF03B05DF804FB05
:10AF6400542D00208456030000B585B003468DF8A7
:10AF740007309DF80730002B02D10C4B039301E0FE
:10AF84000B4B03930398FFF7ABFF0290029B002B3C
:10AF940006D0029B5B689DF8072010469847F1E7AE
:10AFA40000BF00BF05B05DF804FB00BF5C2D0020AE
:10AFB400642D002000B583B003468DF807309DF85A
:10AFC4000730002B05D10A4B01225A700020FFF7ED
:10AFD400CBFF9DF80730012B05D1054B01229A7058
:10AFE4000120FFF7C1FF00BF03B05DF804FB00BF01
:10AFF400542D002000B583B001900091019B002BDB
:10B0040005D1054B01225A700020FFF7ADFF00BFA8
:10B0140003B05DF804FB00BF542D002000B585B0DB
:10B02400034600918DF807309DF80730032B29D093
:10B03400032B35DC002B02D0012B04D030E00020A0
:10B04400FFF7ECFE2DE000238DF80F300DF10F0318
:10B05400184605F00BF8154B1B7883F00103DBB29F
:10B06400002B01D0FFF70AFF104BDB6801330F4AB6
:10B07400D3600E4B01229A709DF80F30184605F0EC
:10B084000BF80EE0094B1B78002B04D1084940F261
:10B09400452008F06BFC00F067FBFFF731FF00E090
:10B0A40000BF00BF05B05DF804FB00BF542D0020B5
:10B0B4008456030000B585B00190019B002B0AD093
:10B0C400074B43F001030393019B9B010293039BF2
:10B0D4000298984700E000BF05B05DF804FB00BF8C
:10B0E4002057030000B583B00190019B1B681F2B00
:10B0F40004D9054940F2CD1008F038FC4FF0A043C4
:10B10400184603B05DF804FBE456030000B585B0AF
:10B11400019001AB1846FFF7E5FF0390019B012264
:10B1240002FA03F31946039800F035F800BF05B09E
:10B134005DF804FB00B585B0019001AB1846FFF73C
:10B14400D1FF0390019B012202FA03F319460398ED
:10B1540000F02BF800BF05B05DF804FB00B585B026
:10B16400019001AB1846FFF7BDFF0390039800F070
:10B174000AF80246019B22FA03F303F0010318467E
:10B1840005B05DF804FB82B00190019BD3F8103543
:10B19400184602B0704782B001900091019B009A5A
:10B1A400C3F8082500BF02B0704782B00190009137
:10B1B400019B009AC3F80C2500BF02B0704700B58C
:10B1C40085B001904FF0A042019B1B6803F5E0732A
:10B1D40040F20C6142F823104FF0A042019B5B68DF
:10B1E40003F5E07340F20C6142F82310019B1B68E5
:10B1F4001846FFF78BFF019B5B681846FFF786FF35
:10B204004FF0A042019B1B6803F5E07340F20D610F
:10B2140042F823104FF0A042019B5B6803F5E073F2
:10B2240040F20D6142F823100420FFF743FF00238E
:10B2340003931EE0019B5B681846FFF78FFF0346EC
:10B24400002B03D0039B002B17D124E0019B1B6828
:10B254001846FFF76FFF0420FFF72CFF019B1B68C4
:10B264001846FFF753FF0420FFF724FF039B013325
:10B274000393039B082BDDDD00E000BF019B5B68AB
:10B284001846FFF757FF0420FFF714FF019B5B6884
:10B294001846FFF73BFF05B05DF804FB00B589B025
:10B2A40001900091009B0793019B1B788DF80C3053
:10B2B400019B1B798DF81030019B5B798DF811305F
:10B2C400019B9B68DBB28DF81230019BDB68DBB21B
:10B2D4008DF81330019B1B690593019B5B690693F1
:10B2E400074A079B52F823300649079A51F822105F
:10B2F40003AA1046984700BF09B05DF804FB00BFDD
:10B30400682D0020702D002000B587B003900291B5
:10B3140001920093039B1B7805931249059B019AA4
:10B3240041F823201049059B009A41F82320029BF1
:10B334005B7B002B02D00298FFF741FF00230493AC
:10B34400039B181D019B002B01D0084A00E000223A
:10B35400059B029901F0D0FA0490049B184607B0AB
:10B364005DF804FB682D0020702D0020A1B20200BE
:10B3740000B589B001900091009B0793019B1B7855
:10B384008DF80C30019B5B680493019B9B68DBB2D6
:10B394008DF81430019BDB680693074A079B52F82B
:10B3A40023300649079A51F8221003AA10469847F9
:10B3B40000BF09B05DF804FB782D00207C2D00202F
:10B3C40000B589B001900091009B0793019B1B7805
:10B3D4008DF80C30019B5B680493019B9B68DBB286
:10B3E4008DF81430019BDB680693074A079B52F8DB
:10B3F40023300649079A51F8221003AA10469847A9
:10B4040000BF09B05DF804FB782D00207C2D0020DE
:10B4140030B58FB0039002910192039B1B780C937B
:10B4240026490C9B019A41F82320029B1A6924495E
:10B434000C9B41F82320029B5B7F1946214A0C9BFD
:10B4440013440A461A70029B04AC1D460FCD0FC468
:10B4540095E80F0084E80F000C9B089300230D93DC
:10B46400039B1B781A46174B9B5C002B0DD0039B48
:10B47400181D019B002B01D0134A00E0002204ABED
:10B48400194603F017F80D9014E0039B1B781A4635
:10B494000C4B9B5C002B0DD1039B03F10C00019B17
:10B4A400002B01D0094A00E0002204AB194602F047
:10B4B40085F90D900D9B18460FB030BD782D0020F6
:10B4C4007C2D0020802D002075B30200C5B302003E
:10B4D40082B003468DF807309DF8073003F01F0251
:10B4E40005499DF907305B09012000FA02F241F891
:10B4F400232000BF02B0704700E100E082B00346A1
:10B5040000918DF807309DF90730002B0CDA009B71
:10B51400DAB20C499DF8073003F00F03043B5201E3
:10B52400D2B20B441A7609E0009BDAB206499DF9BF
:10B5340007305201D2B20B4483F8002300BF02B09B
:10B54400704700BF00ED00E000E100E082B0019030
:10B55400019B1B0B5BB2184602B0704700B583B069
:10B5640003460A468DF8073013468DF806309DF8D9
:10B574000630012B03D99DF80630032B0BD99DF817
:10B584000630042B03D99DF80630072B03D908494C
:10B594006B2008F0EBF99DF806209DF90730114661
:10B5A4001846FFF7ABFF00BF03B05DF804FB00BF14
:10B5B4002857030000B583B003468DF807309DF982
:10B5C40007301846FFF784FF00BF03B05DF804FBA3
:10B5D40082B003468DF807300F4A9DF90730002BDF
:10B5E40000DA1F335B115BB252F823209DF9073058
:10B5F400594203F01F0301F01F0158BF4B425BB2D5
:10B6040022FA03F303F00103002B14BF01230023E8
:10B61400DBB2184602B0704700E100E082B001904E
:10B624004FF08042019BC2F8083300BF02B070475C
:10B6340082B003468DF807309DF8073003F180434C
:10B6440001221A6000BF02B0704784B00346ADF80F
:10B654000630BDF8063003F1804300221A60BDF8BD
:10B66400063003F180431B680393039B00BF04B0BF
:10B67400704782B00346ADF80630BDF8063003F1DA
:10B6840080431B68002B14BF01230023DBB2184640
:10B6940002B0704782B001904FF08042019BC2F823
:10B6A400183500BF02B070474FF08043D3F8183408
:10B6B4001B0C03F00103002B14BF01230023DBB296
:10B6C4001846704700B583B006238DF807304FF055
:10B6D4008040FFF73BFF03461846FFF779FF034618
:10B6E40083F00103DBB2002B13D04FF08040FFF74F
:10B6F4002DFF03461A469DF8073019461046FFF7FA
:10B704002DFF4FF08040FFF721FF03461846FFF757
:10B7140051FF00BF03B05DF804FB000000B585B025
:10B724000190019B002B03D10D49A42008F01EF9C0
:10B73400002303930B4B1B79002B02D08523039327
:10B7440008E0084A019B1360064B01221A71054B5D
:10B7540000225A71039B184605B05DF804FB00BF34
:10B7640060570300842D002008B5074B1B79002B7C
:10B7740003D10649BD2008F0F9F8FFF7A3FF012023
:10B78400FFF788FF00BF08BD842D00206057030029
:10B7940008B50A4B1B79002B03D10949F72008F09F
:10B7A400E5F80C20FFF744FF00BFFFF77DFF0346D9
:10B7B400002BFAD100BF00BF08BD00BF842D0020BC
:10B7C4006057030008B54FF48070FFF752FF03463B
:10B7D400002B14D04FF48070FFF737FF0120FFF7E0
:10B7E4001DFF114B5B7983F00103DBB2002B06D004
:10B7F4000D4B01225A710C4B1B68002098474FF4E3
:10B804008270FFF736FF0346002B0AD04FF4827094
:10B81400FFF71BFF0220FFF701FF034B1B6801200A
:10B82400984700BF08BD00BF842D002082B00346A6
:10B834008DF807309DF8073003F01F0205499DF984
:10B8440007305B09012000FA02F241F8232000BF0F
:10B8540002B0704700E100E082B0034600918DF829
:10B8640007309DF90730002B0CDA009BDAB20C4943
:10B874009DF8073003F00F03043B5201D2B20B448E
:10B884001A7609E0009BDAB206499DF907305201A5
:10B89400D2B20B4483F8002300BF02B0704700BF4C
:10B8A40000ED00E000E100E000B583B003460A4685
:10B8B4008DF8073013468DF806309DF80630012BBD
:10B8C40003D99DF80630032B0BD99DF80630042BC1
:10B8D40003D99DF80630072B03D908496B2008F0DB
:10B8E40045F89DF806209DF9073011461846FFF7E4
:10B8F400B3FF00BF03B05DF804FB00BFBC570300F7
:10B9040000B583B003468DF807309DF9073018461B
:10B91400FFF78CFF00BF03B05DF804FB00B583B0F4
:10B924000346ADF80630BDF80630184600F026F898
:10B9340003461B68012B0CBF01230023DBB218460E
:10B9440003B05DF804FB00B585B00346ADF80630DE
:10B95400BDF80630184600F011F803461A460023D5
:10B964001360BDF80630184600F008F803461B685B
:10B974000393039B00BF05B05DF804FB82B003464C
:10B98400ADF80630BDF8063003F1804303F5C0433B
:10B99400184602B07047000082B00190034A019B30
:10B9A400C2F8043300BF02B0704700BF006000401B
:10B9B40082B00190034BD3F80423019B1340184633
:10B9C40002B070470060004082B00190084A019BB9
:10B9D40003F5A27352F82330054943F00102019B99
:10B9E40003F5A27341F8232000BF02B0704700BFE3
:10B9F4000060004084B00390029113468DF8073034
:10BA0400144A039B03F5A27352F82330114923F41B
:10BA1400473323F44073039A02F5A27241F82230AB
:10BA24000C4A039B03F5A27352F82320029B1B02CA
:10BA340003F4F8519DF807301B0403F440330B431F
:10BA440004491A43039B03F5A27341F8232000BF62
:10BA540004B070470060004082B00190054A019B29
:10BA640003F5A27352F823301B0A03F01F03184690
:10BA740002B070470060004082B00190064A019B0A
:10BA840003F5A27352F823301B0C03F00303DBB25B
:10BA9400184602B0704700BF0060004000B583B094
:10BAA4000190019B1B681F2B04D9054940F2CD105E
:10BAB40007F05CFF4FF0A043184603B05DF804FBA9
:10BAC400EC57030000B585B00190084611461A46AC
